:020000040000fa
:080000000002040000000000f2
:020000040000fa
:04000800c60300002b
:020000040000fa
:04000c00c603000027
:020000040000fa
:04001000c603000023
:020000040000fa
:04001400c60300001f
:020000040000fa
:04001800c60300001b
:020000040000fa
:04001c00c603000017
:020000040000fa
:04002000c603000013
:020000040000fa
:04002400c60300000f
:020000040000fa
:04002800c60300000b
:020000040000fa
:04002c00c603000007
:020000040000fa
:04003000c603000003
:020000040000fa
:04003400dc020000ea
:020000040000fa
:04003800c6030000fb
:020000040000fa
:04003c00c6030000f7
:020000040000fa
:04004000c6030000f3
:020000040000fa
:04004400c6030000ef
:020000040000fa
:04004800c6030000eb
:020000040000fa
:04004c00c6030000e7
:020000040000fa
:04005000c6030000e3
:020000040000fa
:04005400c6030000df
:020000040000fa
:04005800c6030000db
:020000040000fa
:04005c00c6030000d7
:020000040000fa
:04006000c6030000d3
:020000040000fa
:04006400c6030000cf
:020000040000fa
:04006800c6030000cb
:020000040000fa
:04006c00c6030000c7
:020000040000fa
:04007000c6030000c3
:020000040000fa
:04007400c6030000bf
:020000040000fa
:04007800c6030000bb
:020000040000fa
:04007c00c6030000b7
:020000040000fa
:04008000c6030000b3
:020000040000fa
:04008400c6030000af
:020000040000fa
:04008800c6030000ab
:020000040000fa
:04008c00c6030000a7
:020000040000fa
:04009000c6030000a3
:020000040000fa
:04009400c60300009f
:020000040000fa
:04009800c60300009b
:020000040000fa
:04009c00c603000097
:020000040000fa
:0400a000c603000093
:020000040000fa
:0400a400c60300008f
:020000040000fa
:0400a800c60300008b
:020000040000fa
:0400ac00c603000087
:020000040000fa
:0400b000c603000083
:020000040000fa
:0400b400c60300007f
:020000040000fa
:0400b800c60300007b
:020000040000fa
:0400bc00c603000077
:020000040000fa
:0400c000c603000073
:020000040000fa
:0400c400c60300006f
:020000040000fa
:0400c800c60300006b
:020000040000fa
:0400cc00c603000067
:020000040000fa
:0400d000c603000063
:020000040000fa
:0400d400c60300005f
:020000040000fa
:0400d800c60300005b
:020000040000fa
:0400dc00c603000057
:020000040000fa
:0400e000c603000053
:020000040000fa
:0400e400c60300004f
:020000040000fa
:0400e800c60300004b
:020000040000fa
:0400ec00c603000047
:020000040000fa
:0400f000c603000043
:020000040000fa
:0400f400c60300003f
:020000040000fa
:0400f800c60300003b
:020000040000fa
:0400fc00c603000037
:020000040000fa
:04010000c603000032
:020000040000fa
:04010400c60300002e
:020000040000fa
:04010800c60300002a
:020000040000fa
:04010c00c603000026
:020000040000fa
:04011000c603000022
:020000040000fa
:04011400c60300001e
:020000040000fa
:04011800c60300001a
:020000040000fa
:04011c00c603000016
:020000040000fa
:04012000c603000012
:020000040000fa
:04012400c60300000e
:020000040000fa
:04012800c60300000a
:020000040000fa
:04012c00c603000006
:020000040000fa
:04013000c603000002
:020000040000fa
:04013400c6030000fe
:020000040000fa
:04013800c6030000fa
:020000040000fa
:04013c00c6030000f6
:020000040000fa
:04014000c6030000f2
:020000040000fa
:04014400c6030000ee
:020000040000fa
:04020800c603000029
:020000040000fa
:04020c00c603000025
:020000040000fa
:04021000c603000021
:020000040000fa
:04021400c60300001d
:020000040000fa
:04021800c603000019
:020000040000fa
:04021c00c603000015
:020000040000fa
:04022000c603000011
:020000040000fa
:04022400c60300000d
:020000040000fa
:04022800c603000009
:020000040000fa
:04022c00c603000005
:020000040000fa
:04023000c603000001
:020000040000fa
:04023400dc020000e8
:020000040000fa
:04023800c6030000f9
:020000040000fa
:04023c00c6030000f5
:020000040000fa
:04024000c6030000f1
:020000040000fa
:04024400c6030000ed
:020000040000fa
:04024800c6030000e9
:020000040000fa
:04024c00c6030000e5
:020000040000fa
:04025000c6030000e1
:020000040000fa
:04025400c6030000dd
:020000040000fa
:04025800c6030000d9
:020000040000fa
:04025c00c6030000d5
:020000040000fa
:04026000c6030000d1
:020000040000fa
:04026400c6030000cd
:020000040000fa
:04026800c6030000c9
:020000040000fa
:04026c00c6030000c5
:020000040000fa
:04027000c6030000c1
:020000040000fa
:04027400c6030000bd
:020000040000fa
:04027800c6030000b9
:020000040000fa
:04027c00c6030000b5
:020000040000fa
:04028000c6030000b1
:020000040000fa
:04028400c6030000ad
:020000040000fa
:04028800c6030000a9
:020000040000fa
:04028c00c6030000a5
:020000040000fa
:04029000c6030000a1
:020000040000fa
:04029400c60300009d
:020000040000fa
:04029800c603000099
:020000040000fa
:04029c00c603000095
:020000040000fa
:0402a000c603000091
:020000040000fa
:0402a400c60300008d
:020000040000fa
:0402a800c603000089
:020000040000fa
:0402ac00c603000085
:020000040000fa
:0402b000c603000081
:020000040000fa
:0402b400c60300007d
:020000040000fa
:0402b800c603000079
:020000040000fa
:0402bc00c603000075
:020000040000fa
:0402c000c603000071
:020000040000fa
:0402c400c60300006d
:020000040000fa
:0402c800c603000069
:020000040000fa
:0402cc00c603000065
:020000040000fa
:0402d000c603000061
:020000040000fa
:0402d400c60300005d
:020000040000fa
:0402d800c603000059
:020000040000fa
:0402dc00c603000055
:020000040000fa
:0402e000c603000051
:020000040000fa
:0402e400c60300004d
:020000040000fa
:0402e800c603000049
:020000040000fa
:0402ec00c603000045
:020000040000fa
:0402f000c603000041
:020000040000fa
:0402f400c60300003d
:020000040000fa
:0402f800c603000039
:020000040000fa
:0402fc00c603000035
:020000040000fa
:04030000c603000030
:020000040000fa
:04030400c60300002c
:020000040000fa
:04030800c603000028
:020000040000fa
:04030c00c603000024
:020000040000fa
:04031000c603000020
:020000040000fa
:04031400c60300001c
:020000040000fa
:04031800c603000018
:020000040000fa
:04031c00c603000014
:020000040000fa
:04032000c603000010
:020000040000fa
:04032400c60300000c
:020000040000fa
:04032800c603000008
:020000040000fa
:04032c00c603000004
:020000040000fa
:04033000c603000000
:020000040000fa
:04033400c6030000fc
:020000040000fa
:04033800c6030000f8
:020000040000fa
:04033c00c6030000f4
:020000040000fa
:04034000c6030000f0
:020000040000fa
:04034400c6030000ec
:020000040000fa
:100400006f8b20000eff27000e0188000000000007
:10041000000020000000e000020032000001200087
:10042000200288000e000700e044210001002000a7
:10043000810f700001003200220007000000200040
:100440000000e00002003200000002000000000096
:10045000c8120200000000000040da000000fe00a8
:100460004440a900200320000000e0000300320007
:1004700000002000a00188004440a8000000060001
:10048000f03fb1000180b10006003500ee03090025
:1004900000000000403fb1000180b100fbff3d00c3
:1004a0001000b000203fb0000200350000800900bd
:1004b00000000000000006008a1f78008b1f7800f3
:1004c0000000060091018800800478000000eb0025
:1004d0001a003700e284440032a0b4009905ba0043
:1004e000e284440032a0b4009906ba00e2844400d9
:1004f00032a0b4000006eb00476fde00fd07b2003b
:10050000636ce10003003a00ebff07000000eb0022
:100510000a003700606ce10004003a00005deb0067
:100520008b05e900fdff3e00040037006168e10033
:10053000010032000086eb000b00070019c7ba006b
:100540001905ba000e04e00003003a000a00e000ba
:10055000e0ff3a0000000600fe07b2009e0188009e
:100560008a047800f5ff3700395dba008b05e90091
:100570000c003200295dba008b05e900080032004a
:100580000c00e00003003a00e284440032a0b40012
:10059000f5ff370019ddba008b05e900faff3a00d4
:1005a0008904e800e184440032a0b40000000600a1
:1005b0002c120400000000003600f800809fbe00ee
:1005c000829fbe00849fbe00869fbe00881f780069
:1005d0000400fa000000eb000509070000402f00ae
:1005e00011002000a6ff07000828ef000a003700ce
:1005f000484080000f09070080007800080144008f
:100600008088200000004100010878004040800000
:100610000000e8004040880040408000e40f5000a7
:10062000f3ff340010002000f108070000402f0005
:100630001100200092ff07000828ef000a00370091
:1006400048408000fb080700800078000801440053
:10065000208920000000410001087800404080000f
:100660000000e8004040880040408000e40f500057
:10067000f3ff34008088200081070700000f780016
:10068000208920007e070700100798001000200036
:100690009045880080c1b300d10507000040eb0001
:1006a000ab05070090c1b300cd05070000c1b30042
:1006b000a70507009e1f780050e62800801f7800dd
:1006c0003a010700e4875700e08620003e0107005a
:1006d00080c1b300c20507000040eb009c05070085
:1006e00090c1b300be05070080c1b30098050700a4
:1006f0009e009000811f7800c0e62800801f7800cf
:100700002a010700e4875700e08620002e01070039
:100710001e007800004078000ae8b7001e0078004c
:100720004800de00004078000be8b7001e00900093
:10073000004078000ce8b7001e0090004800de0082
:10074000004078000de8b7000ac8bf00280807007d
:100750000bc8bf00260807000cc8bf00240807000c
:100760000dc8bf00220807008460a9000080fa00bd
:100770004f0478004f03be004f02be004f01be0081
:100780004f00be003600f900004006000040da00cd
:100790000000fe0000c0da00000006000a00fa00b7
:1007a000e20f500034003e0090458000e10f500001
:1007b00003003200e20f500011003a000c00370035
:1007c000032220000300e00001003a000040da00ac
:1007d0002002e200020035002822ef0021e2a800fa
:1007e0002342ab000d003a002342a8000b00370063
:1007f000032320000300e00001003a000040da007b
:100800003002e200020035003822ef0031e2a80099
:100810003342ab0001003a003342a8008201780065
:100820000b0037003102fb00e10f500004003a00da
:100830002322ab00feff3a0024118800030037009a
:100840003322ab00feff3a00a41188008301e900c7
:100850000300e000f3ff3a00e10f500003003a000c
:100860002302ab00feff32000b0037003302ab0067
:10087000feff32000800370033002000b3bf9f00a6
:10088000c0bf9f00d1bf9f00e2bf9f006a8057009a
:10089000c0ff07006fb99700020078000080fa00df
:1008a00000000600889fbe0080047800a0458000fc
:1008b0000000e00004003a000e0007000084eb0096
:1008c0000000e00008003500a84580000900e000b5
:1008d0000500320009004400060007000000e000a7
:1008e00001003d000084eb00080078004f04be00ca
:1008f00000000600800078000100e00003003a00dc
:1009000000002000a0458800000005000080eb00ea
:1009100002002000828f500002003e00a1458800a6
:100920000000eb00000006006022b8000602200074
:100930000000d0008180d2000482d2008582d200e3
:100940000000a0000202520083825a00030031001e
:100950000202420083824a000000a1000603e9006f
:10096000f3ff3a0000000600020ab900001bb900bc
:100970000200b80081004200810043000000060030
:100980004211880000118800111188000000060043
:10099000ef36b000889fbe008a9fbe008c9fbe00cd
:1009a0008e1f78008004780001057800020478002a
:1009b000b3b79f00f0312000800f540006003600ce
:1009c0000800e800aa000700800678000d00e0009b
:1009d00003003a006e0037006dcc2f008f86460072
:1009e0000040eb0080767c000000eb00b0879c00ac
:1009f0000a05e900ca879c000006eb004260dd00a2
:100a000061c82f008f804000e10178000080e8007d
:100a1000610778000c06e9008300470022002000ef
:100a2000110009008200d8000880b90080804400cd
:100a3000080178000d00780083bf9f006101070066
:100a40008e0578008fb99700030578000100370004
:100a50000a05e80008d0b90000814400c2b79f0031
:100a60008d0078000200780083bf9f003fb397009d
:100a7000060001008fb997000000e000f4ff350088
:100a80000802ea0008d8b9000081440001003700dc
:100a90008b05e900820078000d007800e2b79f0026
:100aa00083bf9f00d4b79f00f2b79f003fb397006a
:100ab000060001006fb197005fb29700040141008a
:100ac0008fb99700ffb297000000e000f0ff3500fb
:100ad0008b0f550007003c0005017800cfb0970050
:100ae000080078003e0107000a05e8008b05e900d0
:100af0008fb997008b0f5500d6ff340083805500c7
:100b00000a005700808f50000a003d008e0f5500ec
:100b100012003d000c06e8004260dd0061c82f00b5
:100b20008f804000008040000a1878000e0878008e
:100b30000a0037008b8f51000a003d000c06e800c8
:100b40004260dd0062c82f000f014100000041003b
:100b5000031878000b087800020037000b077800b4
:100b6000010037008a0178008e8f5100aaff3500fe
:100b70000c00e000a1ff3d0060cc2f000f00400002
:100b8000808f5600020032000d007800c10007007f
:100b90004f0778004f06be004f05be004f04be0051
:100ba000ef1fb1000f17b100000006000000fa00af
:100bb00068815700cfb89700e08620001901070030
:100bc0000080fa0000000600881f7800000478000a
:100bd000b8009000010078001020b200e10f500032
:100be00005003a000000eb00100498002800900077
:100bf000000c7800180037002120b2000000eb0044
:100c000022202000828f500017003a00a800900098
:100c10000100e00014003200180190000200e00022
:100c20001100320048009000dcfe070098009000a0
:100c3000810f500003003200380090000003b30021
:100c4000300498000000eb00100498002800900089
:100c5000000c7800b80090000000eb000158a300e1
:100c6000010032000080eb004f0478000000060015
:100c7000889fbe008a9fbe008c9fbe00c189200055
:100c8000e24480000200e0000b003a006481400072
:100c9000e244880032458800a10098002145880080
:100ca000214190000204a000a24098006141900000
:100cb0000204a000e2409800670440004244de00c5
:100cc0004244dd002445800001002000090020008e
:100cd000818454002d002000110009008d04d800eb
:100ce000800678000886e8000c0646008001eb00cc
:100cf00002003700130020000b027800a44090008f
:100d00000108a300020032000a003700120a78002e
:100d100014017800a24090000108a300fbff3200fc
:100d200088004200810f5100020039000800e000f5
:100d300042003d00940578000b00a100848f55000f
:100d4000edff3e00e18f5100eaff3a008d0f5400a5
:100d500002003600890f5400140039006141b800c8
:100d60006148b900b4ff2f000500200000005200c8
:100d700081805a00800f5100818f59000200350098
:100d8000640544000a003700000020003a002000fb
:100d90000005550008054500110009000985d80027
:100da0000980b90000057800010037000c057800c3
:100db0000a007800bbfe0700e10f400005003a0082
:100dc000640544000a007800b6fe0700e10f400009
:100dd0002b003200314580008008780031458000ca
:100de000e481400021419000830f50000200320056
:100df0000204a000010037000204a100a2409800f4
:100e0000640555000a0540000a0878003a45880044
:100e1000c1892000010d780032458000a240900079
:100e20000104a00021419800a04090000104a1000d
:100e3000214098008001eb00afff3700214588007a
:100e4000810f5100070036001101be0042458800a5
:100e500053458800940878000041eb00214580004c
:100e6000a240980023458000030a7800a440900027
:100e70000104a000214298006400420001003700f4
:100e80000000eb004f06be004f05be004f04be0041
:100e9000000006000000e00008003200640050007e
:100ea00021458000810f500001003100204588005d
:100eb000a04090000104a10021409800000006001d
:100ec000889fbe008a9fbe000004be000900e000ab
:100ed00007003a000000eb000800e0003600320096
:100ee00008007800ebff07000000eb00320037003d
:100ef0000800e00003003a00090078005cff0700ea
:100f00002d003700640054009005780068f89700c1
:100f10000008a3000200320008007800ddff07008f
:100f20000900780052ff0700800478000000eb0001
:100f30000900e00020003200888f54001b003200be
:100f400069bd97000905550042d5de00888555002a
:100f5000c2ddde000a0178008b0f5500010036006b
:100f60000b0178004211dd0088007800090078004c
:100f700014000700888f54000e0031004255dd0038
:100f80000a854400880f55000a0036000804550001
:100f900042c4de004244dd00088444004045800035
:100fa00051458000008cbe00020037000800780028
:100fb00001003700090078004f05be004f04be0055
:100fc000000006008001780002003700b159780067
:100fd0000201e9000200e000fcff3a000000060008
:100fe0000400370091417800925878000359780046
:100ff0000000e9000000e000faff3a0000000600ef
:10100000d0019000028151004240a9000300340049
:1010100010017800014978000208e800010078001a
:1010200000000600f6874700889fbe008a9fbe002a
:101030008c9fbe008e1f780000057800a1b79f002e
:10104000020778008004eb0090023700afb09700f1
:101050008100e800a1b79f0051c2b300814f50004a
:1010600003003a00afb097000004eb001100370016
:10107000ba0090000000fb000168a30007003200e6
:1010800009017800800078000a007800dcff070082
:101090000000e00005003a007c0237008a0078007a
:1010a00086020700e10f4000780232008904e80060
:1010b000760237000100780031417800d3c2b300d6
:1010c000834f51000c00320007003c00edc151007d
:1010d000834f51000a003200ebc14100834f5100a1
:1010e0000d003a000800370003c3b300834f5100de
:1010f00009003a00060037000830a000edff370075
:101100000800a000ebff37000810a000e9ff37003f
:101110000820a000e7ff37000818a30001003200f4
:101120000800a1000838a300010032000820a10037
:101130008200fb000103b100e98f50000c003e006b
:10114000000178008000eb006a08b900b201fb00e2
:101150000303b10080804100020078009201fb008f
:101160000303b100e98f5100f7ff36000600370096
:101170008000eb00a3c2b300834f510002003a008d
:10118000ce0078000000e8008005eb00e2c2b3006a
:10119000904f110009003a0008e0a000644151009e
:1011a000d04f1100030032000001780001027800e6
:1011b00006003700ce0578000000e8000001780046
:1011c000090037006a58b9008085410002007800a4
:1011d000b201fb000303b100e98f5100f9ff3600b3
:1011e00084007800f5ff370032407800a2b79f00f6
:1011f000c3c6b300834f5000250032000f003c00ef
:1012000032c6b300824f50008800320004003c0018
:101210000004e000220232006b4151000f00370051
:1012200042c6b300824f50001700320065414100b2
:10123000824f500094003a001300370032c7b300c9
:10124000824f50001b00320007003c0064415100f7
:10125000824f5000100032000241e800824f5000df
:1012600089003a000f00370052c7b300824f500088
:101270008a00320063414100824f500082003a00f0
:10128000e0df9f0009003700e0df9f0085003700a6
:101290000840a000d4ff3700e0df9f000860a000f6
:1012a00080003700e0df9f000850a0000870a00019
:1012b0007c003700e0df9f004e00780000067800d9
:1012c0000000e00001003a002c8320000c017800af
:1012d0000000eb00010037000000e800e241780068
:1012e0000304e000fcff3a00800678000b00e000f9
:1012f000030032008d8f5500010031008b0678000d
:101300008005eb008d8f5000010036008d85500068
:10131000680464002a003a00110037003a00900087
:101320000068a300070032000901780001022000d4
:101330000a00780032ff07000000e00006003a00d3
:10134000060037008a00780000022000db01070059
:10135000e10f4000010032008904e8008b05e9003c
:101360000b00e000edff3a008085eb001400370031
:101370003a0090000068a300090032000c007800d9
:10138000b000fb0000067800090178000a00780030
:101390001bff07000000e00008003a0008003700cb
:1013a0008c0078003100fb00010678008a0078008c
:1013b000c2010700e10f4000010032008904e8008b
:1013c0000d0078008006e9000000e000e8ff3a0028
:1013d0000800e000ad013200110037003a00900033
:1013e0000068a30007003200090178000102200014
:1013f0000a00780002ff07000000e00006003a0043
:10140000060037008a00780000022000ab010700c8
:10141000e10f4000010032008904e8008b05e9007b
:101420000b00e000edff3a00980137004e01780014
:10143000cf91de00c81ade004818dd004812de0039
:1014400004027000e4df9f000848a3000800320097
:101450000404e00006003200e14f420004003200c4
:10146000f4df9f0082e79f002d002000020037007c
:10147000f2df9f001d002000e2fd2f000f01410060
:101480000206e80099ff3700e0df9f00ecfd2f0027
:101490000f0646001d00200094ff3700e0df9f008c
:1014a000080cb30008017800020cb2007000640060
:1014b0000200e0000d003a000000e00002003200ef
:1014c0004e06be00020037004e067800cfe6de0072
:1014d000e00f5600e08f5e000a003d003800b300c8
:1014e00060061600e0861e00060037000000e000df
:1014f000020032004e06be00020037004e067800a1
:101500008006eb000b00e00005003a008c857600b9
:101510000bf0a7008b05ea008b05e900cf5dde002c
:1015200088017800030cb200e3b79f00000420009c
:10153000808f51002300320003003c000300e000d4
:10154000080032002d003700000820006fb297001d
:10155000800f52000d003200000c2000800f52005e
:1015600026003a00a283200010c0b30064014100ad
:10157000b20f5600a28f5e001f0039000040e80045
:10158000ea4f5000f9ff3a001b00370010c0b300cb
:101590000201200003002000820f5600838f5e00ae
:1015a00015003900441add00cc11de008301720001
:1015b0004411dd000040e800e84f5000f6ff3a001b
:1015c0000d00370010c0b30082002000030020008f
:1015d000820f5600838f5e0007003900431add003a
:1015e000cd11de00830172004311dd000040e800f0
:1015f000eb4f5000f6ff3a00e0df9f006fd99700f5
:101600000200fb008b0f500002003d00ebdf9f004b
:1016100003003700808f550001003d0080057800f1
:101620000100e000030032006300640001003200aa
:101630008100e90008e8a300050032008b8f50000c
:10164000020034008b805000010037008000eb0066
:10165000efd997000300fb000002eb00d4b79f0016
:10166000808f50000200340000805000d0b79f00ef
:101670000828a30040003200610164000818a3009c
:101680000f0032003a0090000068a300060032000c
:10169000b10220000200e000010032008180e80079
:1016a000090178000d003700b00220000200e000c0
:1016b000010032000080e8008a0078000e00370048
:1016c0000200e000100032003a0090000068a30021
:1016d0000700320009017800010220000a007800aa
:1016e00047fe07000000e00006003a000600370051
:1016f0008a00780000022000f0000700e10f40009f
:10170000010032008904e8005fb097000000e000ab
:101710005a003200bcb79f00cdb79f00800678000a
:101720003a0090000068a300070032000901780029
:10173000010320000a00780031fe07000000e000ed
:1017400006003a00060037008a00780000032000f7
:10175000da000700e10f4000010032008904e800d0
:101760008d06e900eeff3a00ddb79f003fb6970017
:10177000cfb6970041003700dfb197000300e000cb
:101780001a0032000838a30018003a00bcb79f00c6
:10179000cdb79f00830678003a0090000068a30050
:1017a0000700320009017800010220000a007800d9
:1017b00013fe07000000e00006003a0006003700b4
:1017c0008a00780000022000bc000700e10f400002
:1017d000010032008904e8008d06e900eeff3a00be
:1017e000ddb79f003fb69700cfb697006101640058
:1017f0000818a3000f0032003a0090000068a30010
:1018000006003200b10220000200e00001003200b8
:101810008180e800090178000d003700b002200047
:101820000200e000010032000080e8008a00780039
:101830000e0037000200e000100032003a00900075
:101840000068a300070032000901780001022000af
:101850000a007800eafd07000000e00006003a00f8
:10186000060037008a00780000022000930007007d
:10187000e10f4000010032008904e8000b03e90099
:101880006330b90000017800b2b79f004233dd0039
:10189000a0832000000343008e01780093b79f00cf
:1018a00008077800060478005c0037008b05e90023
:1018b000000420006fb29700800f52003800320001
:1018c00003003c000400e000080032003e00370046
:1018d00000082000efb09700808f500020003200f9
:1018e000000c2000808f500037003a000e48a30003
:1018f000100032001802be000401be000c00be0041
:10190000f4b79f0085bf9f0007fc0700e0df9f0042
:101910000000fb00cf80de007fb297008fba9700f7
:101920000401be0010fc07000006560081865e0020
:101930000700370018017800110009000286d8005e
:10194000a2002000110009000280d800e1df9f0002
:101950006fd997000243b000e2df9f001a00370002
:10196000108220000e58a3000100320000812000e8
:10197000a1832000810054000c01be008100e90019
:10198000030033008301d1000281d300fbff370045
:10199000ef006100e0c07800e1df9f000a0037003f
:1019a0000c00be00bfb197008301e90003003300c3
:1019b0008100d1000080d300fbff3700674060004a
:1019c0000043b000e0df9f00ba0090006fda97009c
:1019d0000400fb000168a300070032000901780041
:1019e000800078000a00780085fd07000000e00014
:1019f00005003a00050037008a0078002f00070034
:101a0000e10f4000010032008904e8003fb0970078
:101a100063005000b0b79f00640454000b00e00066
:101a2000a2ff3a000e0478001fb797000838a30001
:101a300016003200dfb097000100e0001300340010
:101a4000010478003a0090000068a300070032000b
:101a500009017800010220000a00780068fd0700f3
:101a60000000e00006003a00060037008a00780017
:101a70000002200011000700e10f400001003200c9
:101a80008904e8000804e900eeff3a002fb197004e
:101a900012407800e0df9f000004e0006bfd3a0098
:101aa000090078004f0778004f06be004f05be00c2
:101ab0004f04be006f01b10000000600889fbe0009
:101ac00001047800b80090008084eb000118a300a6
:101ad0003a003200180190000198a30002003a0079
:101ae0000200e00035003a000190a00031049800a7
:101af00080047800f90fb2000200e00002003a0012
:101b000028009000000c7800ea8f540005003a008d
:101b10000178a30003003a0088007800d00020007c
:101b2000e6ff070018009000d8009000810f5000d9
:101b30000b0032000000e800100498001800780044
:101b400009487800000ce80011c0b300c08a2000ea
:101b500001487800ea8f540018003a000500370069
:101b6000880078000940780017000700800478009a
:101b700012003700380090000088a3000f003200e8
:101b800018019000a80090004800900003fb070097
:101b900098009000810f500004003200380090003f
:101ba0000003b300300498008084eb000000eb00d9
:101bb0001004980028009000000c780009007800bc
:101bc0004f04be00000006000200fa00889fbe001d
:101bd000a0ff9f0001047800380090000068a30077
:101be00033003a00e200600005003a000003b30051
:101bf00030049800110498000080eb002e0037009c
:101c0000d80490000900e00006003a00120020000d
:101c1000e680570048009000e0fa07001904980099
:101c200023003700a80090000100e00008003a00ff
:101c3000f18a200021049800010c78002100200086
:101c400051049800110498000030a000300498005e
:101c500018019000a800900048009000cffa0700fb
:101c6000280090008080eb0011049800aff89700e6
:101c700001487800000ce8002ff89700ea4f500068
:101c80000b003a00380090000088a30008003200e2
:101c900018019000a800900048009000bffa0700cb
:101ca0000000eb0010049800a8009000010c7800e0
:101cb000aff897000100fb004f04be000080fa005f
:041cc000000006001a
:020000040000fa
:101cc40025690000007800003a2000002535000056
:101cd40064000000793a000020250000356400000b
:101ce40000550000415200005420000069730000b8
:101cf40020520000454100004459000000640000e7
:101d040075740000795800003a250000642c000026
:101d14006475000074790000593a000025640000dd
:041d24000a000000b1
:020000040000fa
:101d28000000fa00620020000140200000002800a6
:101d380011fb070000802e0031002000cef90700bb
:101d48000080fa00000006000200fa00004f780048
:101d5800010037000000000023c2bf00624060009d
:101d68000004e000fbff3a001e80fb002011880001
:101d7800010037000000000023c2bf00614060007e
:101d88000004e000fbff32000080fa0000000600bb
:101d98000600fa0010079800414798000040eb0041
:101da800004f7800070037001e80fb008000780095
:101db8001e0090000080400010407800e2ff0700fd
:101dc8001e4fe8004e4090009e4f1000f6ff39006d
:101dd8000080fa00000006000200fa00004f7800b8
:101de800c0c7b300d8ff07001e407800d6ff070021
:101df8000080fa00000006000000fa00c0c7b30027
:101e0800d1ff07000040eb00cfff07000080fa0079
:101e1800000006000200fa00000f7800c0c7b300f7
:101e2800c9ff070010c0b300c7ff07001e007800f5
:101e3800c5ff07000080fa00000006000200fa0053
:101e4800000f7800c0c7b300bfff070020c0b30071
:101e5800bdff07001e007800bbff07000080fa00e6
:101e6800000006000800fa00000f7800110798002b
:101e78002207980033079800c0c7b300b2ff0700d5
:101e880030c0b300b0ff07001e007800aeff0700a7
:101e98001e009000acff07002e009000aaff07006c
:101ea8003e009000a8ff07000080fa00000006002e
:101eb8000000fa00c0c7b300a3ff070040c0b3008a
:101ec800a1ff07000080fa00000006000800fa00e1
:101ed800000f780011079800220798003307980030
:101ee800c0c7b30098ff070050c0b30096ff0700b3
:101ef8001e00780094ff07001e00900092ff070064
:101f08002e00900090ff07003e0090008eff070013
:101f18000080fa00000006000000fa00c0c7b30005
:101f280089ff070060c0b30087ff07000080fa0040
:101f3800000006000200fa00000f78001e00e00012
:101f480002003c0010002000000f78006000200014
:101f58009e0f10000200340060002000000f78007f
:101f6800c0c7b30078ff070070c0b30076ff070052
:101f78001e00780074ff07000080fa0000000600c9
:101f88000000fa00c0c7b3006fff070080c0b300ad
:101f98006dff07000080fa00000006000200fa004a
:101fa800000f7800c0c7b30067ff0700a0c0b300e8
:101fb80065ff07001e00780063ff07000080fa0035
:101fc800000006000800fa00000f780011079800ca
:101fd8002207980033079800c0c7b3005aff0700cc
:101fe800b0c0b30058ff07001e00780056ff070076
:101ff8001e00900054ff07002e00900052ff0700bb
:102008003e00900050ff07000080fa000000060024
:102018000a00fa00000f78001107980022079800bc
:102028003307980044079800c0c7b30046ff07006d
:10203800c0c0b30044ff07001e00780042ff07003d
:102048001e00900040ff07002e0090003eff070092
:102058003e0090003cff07004e0090003aff07004a
:102068000080fa00000006000a00fa001007980035
:10207800210798003207980043079800c0c7b300ab
:1020880031ff0700d0c0b3002fff07001e009000eb
:102098002dff07002e0090002bff07003e00900048
:1020a80029ff07000000eb00000f78000700370049
:1020b8001e007800800078004e00900000804000ec
:1020c8001040780020ff07001e0fe800f0012000f4
:1020d8009e0f1000f6ff34000080fa000000060092
:1020e8000a00fa00000f78001107980022079800ec
:1020f8003307980044079800c0c7b30012ff0700d1
:10210800f0c0b30010ff07001e0078000eff0700a4
:102118001e0090000cff07002e0090000aff070029
:102128003e00900008ff07004e00900006ff0700e1
:102138000080fa00000006000600fa00000f780090
:102148001107980022079800c0c7b300fefe0700d9
:1021580000c1b300fcfe0700000820009e0f10001d
:102168000300340000c8b300f7fe0700070037007b
:102178001e00e00003003d000040eb00f2fe0700f7
:10218800020037001e007800effe07009e00900056
:1021980000042000808f50000300340000c4b30006
:1021a800e9fe0700080037001e0090000000e0006c
:1021b80003003d000040eb00e3fe0700020037008b
:1021c8001e009000e0fe07002e009000e10f500076
:1021d800060032002e0090000000e00003003200ec
:1021e80010c0b300d8fe0700020037002e00900090
:1021f800d5fe07000080fa00000006000a00fa0079
:10220800000f7800110798002207980033079800fc
:10221800044f9800c0c7b300cbfe070020c1b3002d
:10222800c9fe07001e007800c7fe07001e009000c8
:10223800c5fe07002e009000c3fe07003e00900078
:10224800c1fe07000e489000bffe07000080fa009c
:10225800000006000000fa00c0c7b300bafe07007d
:1022680040c1b300b8fe07000080fa000000060075
:102278000000fa00c0c7b300b3fe070050c1b300a6
:10228800b1fe07000080fa00000006000e00fa0008
:102298001007980021079800320798004307980014
:1022a8005407980065079800c0c7b300a6fe07004a
:1022b80060c1b300a4fe07001e009000a2fe070044
:1022c8002e009000a0fe07003e0090009efe070032
:1022d8004e0090009cfe07005e0090009afe0700ea
:1022e800ce0090005e0090000088b90082002000b7
:1022f800110009000200d800000f78000000eb0070
:1023080010079800090037001e0090008000780030
:102318006e00900000804000104078008afe0700a0
:102328001e0090000000e800100798001e009000b2
:102338009e0f5000f4ff35000080fa0000000600f0
:102348000400fa00000f780011079800c0c7b30016
:102358007dfe070080c1b3007bfe07001e007800e9
:1023680079fe0700c0c7b30077fe070090c1b3002d
:1023780075fe07001e00900073fe07000080fa003b
:10238800000006000400fa00100798001e009000e4
:10239800e80f500003003400800020001007980068
:1023a8000c0037001e0090000000e00003003c0015
:1023b8001000200010079800060037001e0090004b
:1023c8004300dd00680f50009e00780010002000d8
:1023d800dbff07000080fa00000006000000fa009a
:1023e80021e3a900770107000080eb00601988004d
:1023f8000080eb00501988002de3a9002d23a900c7
:102408002143a80001198000f0cf2f000080600050
:102418000019880001198000000e200001007000da
:10242800001988002223ef0025e3a9002119800064
:1024380000f02100010070002019880090c0b3004e
:1024480024e3b70021e3a8000080fa00000006009a
:102458000400fa00000f7800110798001e007800a9
:10246800900078001e009000100078000080500056
:102478000080fa00000006000200fa00000f780051
:10248800c022210080017800220020005100200095
:102498001e0078003cf907009e0078006480400028
:1024a800100078000080fa00000006000400fa001e
:1024b800100798000000eb00000f78000f003700ad
:1024c80010002000904588001e0090006100600008
:1024d800801f780020e62800801f7800b1f90700e7
:1024e800e4875700e0862000b5f907001e00900039
:1024f8000000d100100798001e0fe8001e007800a9
:10250800ef0f5000eeff36000080fa0000000600d2
:102518000000fa0042c7bf000014a0000081fb00c1
:102528006004200071052000237420008049780091
:10253800814978008249780005e1a9000421a900b1
:102548000441a90021088000000320000100700058
:10255800200888000021ef00409c20001008880017
:1025680021058000f0ff28000080600000c0a00066
:10257800200588008460a9009460a80005e1a800ef
:102588000080fa00000006000c00fa00100020008d
:1025980090458800e2fd07000040eb000efe0700b2
:1025a8008eff07000000eb0041010700100020002b
:1025b8003f01070000002a0061182000aef707005d
:1025c800400620001dfe07008001eb000001eb0023
:1025d80000202c00110020005200070020002000dd
:1025e80090458800100020009045880080c1b30005
:1025f800f9fd07000040eb00d3fd070090c1b300d0
:10260800f5fd07000040eb00cffd070030e728008c
:10261800801f780063f907008f87e900e0862000b3
:1026280067f907000000eb00000f7800b8ff07000b
:102638000300370000000000010037000000000020
:10264800660047007a0007000004e000f9ff3a003e
:10265800ee409000670047001e00400001487800e7
:102668001e0fe8001e007800e40f5000f3ff3a0048
:102678000e4890000080fb00c800dd007e409000fe
:102688000080fb0001007000100798002e489000a1
:102698000080fb00c800dd001e4890000080fb00a1
:1026a8000100700020079800100020009045880065
:1026b80080c1b300c8fd07000040eb00a2fd070081
:1026c80090c1b300c4fd070080c2b3009efd07009f
:1026d800ae009000811f78009e009000811f780056
:1026e80010e82800801f78002ef90700e6875700b9
:1026f800e086200032f9070020002000904588007d
:102708009e0090000000eb000d010700ae00900055
:10271800100020000a0107000000eb00000f7800fd
:10272800c7ff37000800fa00008fbe002207980094
:102738003307980031e2a90097c0a90097e0a900e3
:1027480087c0a90087e0a900de82a800dea2a90050
:10275800e0a2a9003e0090000000e0000200320064
:10276800df82a800dfa2a9001e01be0000502300de
:10277800c10020006af8070000007800c011880036
:102788003022ef003062a9003e0090000000e00017
:10279800070032003162a80081118000f0cf2f00bd
:1027a800008060000090a0008011880005003700bc
:1027b8003162a90081118000f0cf2f0000806000f5
:1027c800801188002e009000e700600080118000d2
:1027d800010070008011880031e2a8003342a8008f
:1027e8000080fa00000006000200fa00004f78009e
:1027f800000000009111800000202000008060008f
:102808000000e000fbff3a001e00fb00a01188005a
:10281800000000009111800000102000008060007e
:102828000000e000fbff32000080fa000000060014
:102838000200fa00000f780090118000620060002a
:102848000000e000030032003222a900e0cfb3000c
:102858000e00370090118000610060000000e00069
:1028680006003200b0118000804078001e00780019
:10287800014878000040eb00040037001e00780093
:102888008040eb000148780000c0eb000080fa00af
:042898000000060036
:020000040000fa
:10289c008808000014000000000000000008000080
:1028ac000800000002000000666666003f666600d5
:1028bc0006400000080800000600000000000000b0
:1028cc000e0800000200000000000000b20800002a
:1028dc00020000000200000001000000620800007d
:1028ec002600000002000000ad08000000ad08004a
:1028fc000900000000020000af08000000af080053
:10290c000e020100000000000000000000000000aa
:10291c00060202000000000062080000ac08000083
:10292c0006000000000000009c08000010000000e1
:10293c00000000001008000052000000020000001f
:10294c0030313200333435003637380039414200eb
:10295c0043444500460030003132330034353600f4
:10296c0037383900616263006465660000286e00c8
:10297c00756c6c002900000001000000000a0000ca
:10298c000000640000000000e803000000102700b5
:10299c000000a0008601000040420f00008096005d
:1029ac0098000000e1f5050000ca9a003b00000009
:1029bc00b40800000200000000000000000000004d
:020000040000fa
:1029cc000000fa00d822a900d842a900d862a900b8
:1029dc00dc22a800dc42a800dc62a9000080fa001e
:1029ec00000006000200fa00004f78001e4178003b
:1029fc00e1802000824878001e4078000004e0004e
:102a0c0004003a00dc22a900dc42a800dc62a80029
:102a1c0003003700dc22a800dc42a900dc62a9001c
:102a2c000080fa00000006000000fa000ec8bf008b
:102a3c000004e0000e003a004119800000fe2f0057
:102a4c0000806000f000b300401988002023a8002b
:102a5c000000000000198000610060000000e00030
:102a6c00fcff32002003a900001880000d00370085
:102a7c004119800000fe2f00008060009000b30020
:102a8c00401988002023a8000000000000198000d5
:102a9c00610060000000e000fcff32002003a90090
:102aac00001880000080fa00000006000200fa0006
:102abc00004f780011e1a9001021a90010c1a90054
:102acc000621ef0081088000f0fc2f0000806000e0
:102adc000050a0008008880084e0a90094e0a900c0
:102aec0000fa2000600888001e4078000004e00016
:102afc0008003a00d2e2a900ac21ef006008800087
:102b0c00c012b100500d880060002000700d8800cc
:102b1c0007003700d2c2a900a621ef006008800090
:102b2c00c012b100200d880060002000400d88000c
:102b3c0011e1a8000080fa00000006000400fa0071
:102b4c00004f7800110798001e4078000004e00048
:102b5c0003003a009e009000510d880002003700df
:102b6c009e009000210d88000080fa0000000600f5
:020000040000fa
:0200000401f009
:04000800ffff0000f6
:020000040000fa
:0200000401f009
:04000c00a30000004d
:020000040000fa
:0200000401f009
:04001000c500000027
:020000040000fa
:0200000401f009
:040014005f00000089
:00000001FF
